S012000041746D656761383533352E73726563EE
S113000015C0A0C4B3C42CC02BC02AC029C028C0AA
S113001027C026C025C024C023C022C021C020C0C0
S11300201FC01EC01DC0CFC31BC0CA0411241FBEE5
S1130030CFE5D2E0DEBFCDBF20E0A0E6B0E001C056
S11300401D92A737B207E1F710E0C6E1D0E003C084
S11300502197FE01AFD4C531D107D1F743D0B0C445
S1130060CFCF8BB38E6F8BBBD8981ABA8FEF88BB68
S113007017BA82B38F6082BB82B38F7082BB81B3A5
S1130080806F81BB81B3807F81BB85B3876885BB6B
S113009085B3877885BB84B3886784BB84B388774A
S11300A084BB089587E886B980E487B908958FE012
S11300B085BF0895F89488E181BD81B5876081BDCD
S11300C081B58F7E81BD08958DE083BF82EC8CBFA6
S11300D089B7826089BF0895369A3699FECF84B174
S11300E095B1089500E710E0DD24D3940F2EFBE6CC
S11300F0EF2EF0E0FF2EF02DC0E6D0E06894CC2483
S1130100C1F86894AA24A2F80F2EF3E0BF2EF02DB4
S11301100F2EF0EC9F2EF02D80917600A895823062
S113012009F44DC028F4882351F08130B9F1F6CF99
S1130130833009F454C1843009F44CC2EFCFF894ED
S113014090DFB0DFB4DFC0DFB5DF789410926A00CF
S1130150969A10926900979A10926800949A109255
S11301606700959A89B386FB882780F98093750088
S113017089B38095881F8827881FF8018083813080
S113018009F49BBE80E393E6A3E0B0E0000001978E
S1130190A109B109D9F7D0927600BECFD0926A00F6
S11301A09698D09269009798D09268009498D092CB
S11301B0670095989A9BB0CFC0927600ADCF80919E
S11301C0750081117DC08C81882331F088819981EB
S11301D09B838A831C8234C08A819B819C0128571B
S11301E03C4E2D3FF9EE3F0700F1488159814D3FC8
S11301F029EE520720F49A01281B390B05C09A01F5
S113020024503641281B390B3E832D8360E070E077
S1130210A0E0B0E08457964DA109B10948175907E9
S11302206A077B0769F4DC820BC048815981BA01F3
S1130230681B790B7E836D832417350709F4DC82F0
S1130240F8011282AB9AF7011282AC9AC0926A004A
S1130250C092690010926800949A10926700959A6F
S11302608C81882309F458CFF801D282AB98F70126
S1130270D282AC98F8018181813039F410926A00FD
S1130280969AD0926800949806C0D0926A00969884
S113029010926800949AF7018181813039F41092A8
S11302A06900979AD0926700959806C0D092690029
S11302B0979810926700959ADC82B09276002CCFC2
S11302C08C81882331F0888199819B838A831C8265
S11302D034C08A819B819C01205F384D2D3FF9EE0B
S11302E03F0700F1488159814D3F29EE520720F420
S11302F09A01281B390B05C09A0124503641281B4A
S1130300390B3E832D8360E070E0A0E0B0E08C5EAA
S1130310924CA109B109481759076A077B0769F488
S1130320DC820BC048815981BA01681B790B7E833A
S11303306D832417350709F4DC828D819E8188380A
S113034073E1970790F4F8011282AB9AF701D28215
S1130350AC98C0926A00D09269009798D0926800D5
S11303609498D09267009598D7CE8838934191F4A9
S1130370F8018181813039F410926A00969AD09202
S113038068009498C9CED0926A009698109268003A
S1130390949AC2CEF801D282AB98F7011282AC9A39
S11303A0C092690010926700959A8C81882309F4A1
S11303B0B3CED282AC988181813039F41092690035
S11303C0979AD0926700959806C0D0926900979842
S11303D010926700959ADC82B09276009DCE7CDE06
S11303E08D3F91400CF4EFC08091750081116CC079
S11303F08C81882331F0888199819B838A831C8234
S113040034C08A819B81AC0148575C4E4D3F29EE34
S1130410520700F1488159814D3F69EE560720F497
S11304209A01281B390B05C09A0124503641281B18
S1130430390B3E832D8360E070E0A0E0B0E0845788
S1130440964DA109B109481759076A077B0769F452
S1130450DC820BC028813981F901E81BF90BFE838A
S1130460ED834217530709F4DC82F8011282AB9A38
S1130470F7011282AC9A8C81882309F44DCEF801DD
S11304808181813041F4C0926A00D09268009498CE
S1130490A092760006C0D0926A00969810926800E6
S11304A0949AF7018181813041F4C0926900D0921D
S11304B067009598A09276002FCED0926900979805
S11304C010926700959A28CE8C81882331F0888118
S11304D099819B838A831C8234C08A819B81AC016D
S11304E0405F584D4D3FF9EE5F0700F14881598157
S11304F04D3F29EE520720F49A01281B390B05C001
S11305009A0124503641281B390B3E832D8360E029
S113051070E0A0E0B0E08C5E924CA109B1094817EC
S113052059076A077B0769F4DC820BC0288139818B
S1130530B901681B790B7E836D834217530709F455
S1130540DC828D819E81883873E1970738F4F80145
S11305501282AB9AF701D282AC98DECD88389341EF
S1130560B1F4F8018181813041F4C0926A00D092E3
S113057068009498A0927600CFCDF801D282AB980F
S1130580D0926A00969810926800949AC5CDF701AB
S11305901282AC9A8C81882309F4BECD818181308A
S11305A041F4C0926900D09267009598A0927600B9
S11305B0B3CDF701D282AC98D0926900979810928B
S11305C06700959AA9CDF801D282AB98F701D2823F
S11305D0AC98A2CD81DD813D91400CF4C6C08091E0
S11305E07500811127C0F8011282AB9AF7011282BB
S11305F0AB9AF8018181813031F4C0926A00D092C3
S11306006800949806C0D0926A0096981092680088
S1130610949AF7018181813031F4C0926900D092BB
S11306206700959879CDD0926900979810926700E9
S1130630959A72CD8C81882331F0888199819B832E
S11306408A831C8269CD8A819B81AC0148575C4EA8
S11306504D3FF9EE5F0708F1488159814D3F29EE7E
S1130660520720F49A01281B390B05C09A01245023
S11306703641281B390B3E832D8360E070E0A0E0F7
S1130680B0E08457964DA109B109481759076A0784
S11306907B0709F041CDDC828EC028813981B90104
S11306A0681B790B7E836D834217530709F034CDA1
S11306B0DC8281C0813091F4F701D282AC98F801D8
S11306C01282AB9AC0926A00D092680094981092F9
S11306D06900979AD092670095981ECD811128C021
S11306E0F701D282AC98F8011282AB9AC0926A00E8
S11306F0D09268009498D0926900979810926700FD
S1130700959A0ACD911114C0813091F4F801D282E6
S1130710AB98F7011282AC9AD0926A009698109224
S11307206800949AC0926900D09267009598F4CCBE
S1130730D0926A00969810926800949AD0926900B8
S1130740979810926700959AF8018281811106C0EA
S1130750D282AB98F7011282AC9ADECCF8011282F5
S1130760AB9AF701D282AC98D7CCF8018181813061
S113077039F410926A00969AD0926800949806C050
S1130780D0926A00969810926800949AF701818139
S1130790813039F410926900979AD0926700959845
S11307A006C0D0926900979810926700959ADC82EF
S11307B0B0927600B1CCF8019181F701818191303A
S11307C009F0A0CF77CF1F920F920FB60F9211248A
S11307D02F933F934F935F936F937F938F939F9345
S11307E0AF93BF93EF93FF934091600050916100EA
S11307F04C3F89EE580740F4CA018C599F4F90939F
S113080061008093600004C0109261001092600047
S11308109A01369527953695279536952795A5EC13
S1130820B0E2BCD0929582958F7089279F708927FA
S113083068EE73E0869F9001879F300D969F300D80
S1130840112442175307D9F480916A00823021F4AD
S113085092B380E4892782BB80916900823079F465
S113086082B3805882BB80916A00823041F48091C7
S11308706900823021F4869902C087994DC0809125
S11308807200811122C080917300909174008436AB
S1130890910530F08456910990937400809373000D
S11308A080917000811108C0B09B06C080EA9FE06F
S11308B09093740080937300E0E7F0E081E023817B
S11308C03481232B09F480E0818380916D008111B0
S11308D028C080916E0090916F008436910530F0AD
S11308E08456910990936F0080936E0080916B0001
S11308F0811108C0B19B06C080EA9FE090936F000D
S113090080936E00EBE6F0E081E023813481232BB9
S113091009F480E0818305C092B380E4892782BB17
S1130920AECFFF91EF91BF91AF919F918F917F9146
S11309306F915F914F913F912F910F900FBE0F9048
S11309401F9018951F920F920FB60F9211248F9338
S11309509F9380EA9FE090937400809373009F912B
S11309608F910F900FBE0F901F9018951F920F92AA
S11309700FB60F9211248F939F9380EA9FE0909378
S11309806F0080936E009F918F910F900FBE0F9018
S11309901F90189581E0809364000895A29FB00190
S11309A0B39FC001A39F01D0B29F700D811D11247C
S11309B0911D0895EE0FFF1F0590F491E02D099409
S10709C0F894FFCFD5
S9030000FC
